{
  "contractName": "ethBLOCKIE",
  "abi": [
    {
      "inputs": [],
      "stateMutability": "nonpayable",
      "type": "constructor"
    },
    {
      "anonymous": false,
      "inputs": [
        {
          "indexed": true,
          "internalType": "address",
          "name": "_owner",
          "type": "address"
        },
        {
          "indexed": true,
          "internalType": "address",
          "name": "_approved",
          "type": "address"
        },
        {
          "indexed": true,
          "internalType": "uint256",
          "name": "_tokenId",
          "type": "uint256"
        }
      ],
      "name": "Approval",
      "type": "event"
    },
    {
      "anonymous": false,
      "inputs": [
        {
          "indexed": true,
          "internalType": "address",
          "name": "_from",
          "type": "address"
        },
        {
          "indexed": true,
          "internalType": "address",
          "name": "_to",
          "type": "address"
        },
        {
          "indexed": true,
          "internalType": "uint256",
          "name": "_tokenId",
          "type": "uint256"
        }
      ],
      "name": "Transfer",
      "type": "event"
    },
    {
      "inputs": [
        {
          "internalType": "address",
          "name": "_to",
          "type": "address"
        },
        {
          "internalType": "uint256",
          "name": "_tokenId",
          "type": "uint256"
        }
      ],
      "name": "approve",
      "outputs": [],
      "stateMutability": "payable",
      "type": "function",
      "payable": true
    },
    {
      "inputs": [
        {
          "internalType": "address",
          "name": "_owner",
          "type": "address"
        }
      ],
      "name": "balanceOf",
      "outputs": [
        {
          "internalType": "uint256",
          "name": "",
          "type": "uint256"
        }
      ],
      "stateMutability": "view",
      "type": "function",
      "constant": true
    },
    {
      "inputs": [
        {
          "internalType": "uint256",
          "name": "",
          "type": "uint256"
        }
      ],
      "name": "ethBLOCKIES",
      "outputs": [
        {
          "internalType": "string",
          "name": "",
          "type": "string"
        }
      ],
      "stateMutability": "view",
      "type": "function",
      "constant": true
    },
    {
      "inputs": [],
      "name": "name",
      "outputs": [
        {
          "internalType": "string",
          "name": "",
          "type": "string"
        }
      ],
      "stateMutability": "view",
      "type": "function",
      "constant": true
    },
    {
      "inputs": [
        {
          "internalType": "uint256",
          "name": "_tokenId",
          "type": "uint256"
        }
      ],
      "name": "ownerOf",
      "outputs": [
        {
          "internalType": "address",
          "name": "",
          "type": "address"
        }
      ],
      "stateMutability": "view",
      "type": "function",
      "constant": true
    },
    {
      "inputs": [
        {
          "internalType": "bytes4",
          "name": "_interfaceId",
          "type": "bytes4"
        }
      ],
      "name": "supportsInterface",
      "outputs": [
        {
          "internalType": "bool",
          "name": "",
          "type": "bool"
        }
      ],
      "stateMutability": "view",
      "type": "function",
      "constant": true
    },
    {
      "inputs": [],
      "name": "symbol",
      "outputs": [
        {
          "internalType": "string",
          "name": "",
          "type": "string"
        }
      ],
      "stateMutability": "view",
      "type": "function",
      "constant": true
    },
    {
      "inputs": [
        {
          "internalType": "uint256",
          "name": "_index",
          "type": "uint256"
        }
      ],
      "name": "tokenByIndex",
      "outputs": [
        {
          "internalType": "uint256",
          "name": "",
          "type": "uint256"
        }
      ],
      "stateMutability": "view",
      "type": "function",
      "constant": true
    },
    {
      "inputs": [
        {
          "internalType": "address",
          "name": "_owner",
          "type": "address"
        },
        {
          "internalType": "uint256",
          "name": "_index",
          "type": "uint256"
        }
      ],
      "name": "tokenOfOwnerByIndex",
      "outputs": [
        {
          "internalType": "uint256",
          "name": "",
          "type": "uint256"
        }
      ],
      "stateMutability": "view",
      "type": "function",
      "constant": true
    },
    {
      "inputs": [],
      "name": "totalSupply",
      "outputs": [
        {
          "internalType": "uint256",
          "name": "",
          "type": "uint256"
        }
      ],
      "stateMutability": "view",
      "type": "function",
      "constant": true
    },
    {
      "inputs": [
        {
          "internalType": "address",
          "name": "_from",
          "type": "address"
        },
        {
          "internalType": "address",
          "name": "_to",
          "type": "address"
        },
        {
          "internalType": "uint256",
          "name": "_tokenId",
          "type": "uint256"
        }
      ],
      "name": "transferFrom",
      "outputs": [],
      "stateMutability": "nonpayable",
      "type": "function"
    },
    {
      "stateMutability": "payable",
      "type": "receive",
      "payable": true
    },
    {
      "inputs": [
        {
          "internalType": "string",
          "name": "_ethBLOCKIE",
          "type": "string"
        }
      ],
      "name": "mint",
      "outputs": [],
      "stateMutability": "payable",
      "type": "function",
      "payable": true
    }
  ],
  "bytecode": "0x60806040523480156200001157600080fd5b506040518060400160405280600a81526020017f657468424c4f434b4945000000000000000000000000000000000000000000008152506040518060400160405280600781526020017f657468424c434b000000000000000000000000000000000000000000000000008152508181620000b17f01ffc9a7a5cef8baa21ed3c5c0d7e23accb804b619e9333b597f47a0d84076e26200026760201b60201c565b8160019081620000c29190620005b8565b508060029081620000d49190620005b8565b50620001067f7feaf19471f34a12a7eaf32d5f3090aa2260ea8624dc8a138e74e0bf0f6230766200026760201b60201c565b620001377f13b182f4c0e5b2efbac0efe6cf6d756c8b89f4b79c5707a043ed9ea740574ee96200026760201b60201c565b50506200016a7f8a7e378434598edc36d108689a030cbc9d7d465de4f74c71bae1028eed6a881b6200026760201b60201c565b6200019b7f3a6eb71757dfc6e784c1459d26270140c2c147d95ca985c80026fc5301c3eca16200026760201b60201c565b620001cc7f22c82707ba960a14c7592ffb6b8cfaa073fed0048a84cc7fa41f6b5bd8e7f2e46200026760201b60201c565b620001fd7fc53637662700e6c65104059db8bba34439e0c32483ab7c34e3ccae52c73954956200026760201b60201c565b6200022e7f6da5e1284143cdd2d15038a59bde3be031250f00291d64494c12d967b3a4e0c36200026760201b60201c565b6200025f7f8230223f691b981717299fae9549350a0d894555723531f02108b1f522c1a7976200026760201b60201c565b505062000748565b63ffffffff60e01b817bffffffffffffffffffffffffffffffffffffffffffffffffffffffff191603620002d2576040517f08c379a0000000000000000000000000000000000000000000000000000000008152600401620002c99062000726565b60405180910390fd5b6001600080837bffffffffffffffffffffffffffffffffffffffffffffffffffffffff19167bffffffffffffffffffffffffffffffffffffffffffffffffffffffff1916815260200190815260200160002060006101000a81548160ff02191690831515021790555050565b600081519050919050565b7f4e487b7100000000000000000000000000000000000000000000000000000000600052604160045260246000fd5b7f4e487b7100000000000000000000000000000000000000000000000000000000600052602260045260246000fd5b60006002820490506001821680620003c057607f821691505b602082108103620003d657620003d562000378565b5b50919050565b60008190508160005260206000209050919050565b60006020601f8301049050919050565b600082821b905092915050565b600060088302620004407fffffffffffffffffffffffffffffffffffffffffffffffffffffffffffffffff8262000401565b6200044c868362000401565b95508019841693508086168417925050509392505050565b6000819050919050565b6000819050919050565b600062000499620004936200048d8462000464565b6200046e565b62000464565b9050919050565b6000819050919050565b620004b58362000478565b620004cd620004c482620004a0565b8484546200040e565b825550505050565b600090565b620004e4620004d5565b620004f1818484620004aa565b505050565b5b8181101562000519576200050d600082620004da565b600181019050620004f7565b5050565b601f82111562000568576200053281620003dc565b6200053d84620003f1565b810160208510156200054d578190505b620005656200055c85620003f1565b830182620004f6565b50505b505050565b600082821c905092915050565b60006200058d600019846008026200056d565b1980831691505092915050565b6000620005a883836200057a565b9150826002028217905092915050565b620005c3826200033e565b67ffffffffffffffff811115620005df57620005de62000349565b5b620005eb8254620003a7565b620005f88282856200051d565b600060209050601f8311600181146200063057600084156200061b578287015190505b6200062785826200059a565b86555062000697565b601f1984166200064086620003dc565b60005b828110156200066a5784890151825560018201915060208501945060208101905062000643565b868310156200068a578489015162000686601f8916826200057a565b8355505b6001600288020188555050505b505050505050565b600082825260208201905092915050565b7f4552433136353a20696e76616c696420696e746572666163652072657175657360008201527f7400000000000000000000000000000000000000000000000000000000000000602082015250565b60006200070e6021836200069f565b91506200071b82620006b0565b604082019050919050565b600060208201905081810360008301526200074181620006ff565b9050919050565b6120b280620007586000396000f3fe6080604052600436106100ab5760003560e01c80632f745c59116100645780632f745c59146101cc5780634f6ccce7146102095780636352211e1461024657806370a082311461028357806395d89b41146102c0578063d85d3d27146102eb576100b2565b806301ffc9a7146100b757806306fdde03146100f457806308d882301461011f578063095ea7b31461015c57806318160ddd1461017857806323b872dd146101a3576100b2565b366100b257005b600080fd5b3480156100c357600080fd5b506100de60048036038101906100d991906111b7565b610307565b6040516100eb91906111ff565b60405180910390f35b34801561010057600080fd5b5061010961036e565b60405161011691906112aa565b60405180910390f35b34801561012b57600080fd5b5061014660048036038101906101419190611302565b610400565b60405161015391906112aa565b60405180910390f35b6101766004803603810190610171919061138d565b6104ac565b005b34801561018457600080fd5b5061018d610647565b60405161019a91906113dc565b60405180910390f35b3480156101af57600080fd5b506101ca60048036038101906101c591906113f7565b610654565b005b3480156101d857600080fd5b506101f360048036038101906101ee919061138d565b610677565b60405161020091906113dc565b60405180910390f35b34801561021557600080fd5b50610230600480360381019061022b9190611302565b610728565b60405161023d91906113dc565b60405180910390f35b34801561025257600080fd5b5061026d60048036038101906102689190611302565b61079a565b60405161027a9190611459565b60405180910390f35b34801561028f57600080fd5b506102aa60048036038101906102a59190611474565b61084b565b6040516102b791906113dc565b60405180910390f35b3480156102cc57600080fd5b506102d5610909565b6040516102e291906112aa565b60405180910390f35b610305600480360381019061030091906115d6565b61099b565b005b6000806000837bffffffffffffffffffffffffffffffffffffffffffffffffffffffff19167bffffffffffffffffffffffffffffffffffffffffffffffffffffffff1916815260200190815260200160002060009054906101000a900460ff169050919050565b60606001805461037d9061164e565b80601f01602080910402602001604051908101604052809291908181526020018280546103a99061164e565b80156103f65780601f106103cb576101008083540402835291602001916103f6565b820191906000526020600020905b8154815290600101906020018083116103d957829003601f168201915b5050505050905090565b600a818154811061041057600080fd5b90600052602060002001600091509050805461042b9061164e565b80601f01602080910402602001604051908101604052809291908181526020018280546104579061164e565b80156104a45780601f10610479576101008083540402835291602001916104a4565b820191906000526020600020905b81548152906001019060200180831161048757829003601f168201915b505050505081565b60006104b78261079a565b90508073ffffffffffffffffffffffffffffffffffffffff168373ffffffffffffffffffffffffffffffffffffffff1603610527576040517f08c379a000000000000000000000000000000000000000000000000000000000815260040161051e906116f1565b60405180910390fd5b8073ffffffffffffffffffffffffffffffffffffffff163373ffffffffffffffffffffffffffffffffffffffff1614610595576040517f08c379a000000000000000000000000000000000000000000000000000000000815260040161058c90611783565b60405180910390fd5b826005600084815260200190815260200160002060006101000a81548173ffffffffffffffffffffffffffffffffffffffff021916908373ffffffffffffffffffffffffffffffffffffffff160217905550818373ffffffffffffffffffffffffffffffffffffffff168273ffffffffffffffffffffffffffffffffffffffff167f8c5be1e5ebec7d5bd14f71427d1e84f3dd0314c0f7b2291e5b200ac8c7c3b92560405160405180910390a4505050565b6000600680549050905090565b61065e3382610a97565b61066757600080fd5b610672838383610b26565b505050565b60006106828361084b565b8211156106c4576040517f08c379a00000000000000000000000000000000000000000000000000000000081526004016106bb90611815565b60405180910390fd5b600860008473ffffffffffffffffffffffffffffffffffffffff1673ffffffffffffffffffffffffffffffffffffffff168152602001908152602001600020828154811061071557610714611835565b5b9060005260206000200154905092915050565b6000610732610647565b821115610774576040517f08c379a000000000000000000000000000000000000000000000000000000000815260040161076b906118d6565b60405180910390fd5b6006828154811061078857610787611835565b5b90600052602060002001549050919050565b6000806003600084815260200190815260200160002060009054906101000a900473ffffffffffffffffffffffffffffffffffffffff169050600073ffffffffffffffffffffffffffffffffffffffff168173ffffffffffffffffffffffffffffffffffffffff1603610842576040517f08c379a000000000000000000000000000000000000000000000000000000000815260040161083990611968565b60405180910390fd5b80915050919050565b60008073ffffffffffffffffffffffffffffffffffffffff168273ffffffffffffffffffffffffffffffffffffffff16036108bb576040517f08c379a00000000000000000000000000000000000000000000000000000000081526004016108b290611968565b60405180910390fd5b610902600460008473ffffffffffffffffffffffffffffffffffffffff1673ffffffffffffffffffffffffffffffffffffffff168152602001908152602001600020610d4b565b9050919050565b6060600280546109189061164e565b80601f01602080910402602001604051908101604052809291908181526020018280546109449061164e565b80156109915780601f1061096657610100808354040283529160200191610991565b820191906000526020600020905b81548152906001019060200180831161097457829003601f168201915b5050505050905090565b600b816040516109ab91906119c4565b908152602001604051809103902060009054906101000a900460ff1615610a07576040517f08c379a00000000000000000000000000000000000000000000000000000000081526004016109fe90611a4d565b60405180910390fd5b600a81908060018154018082558091505060019003906000526020600020016000909190919091509081610a3b9190611c19565b5060006001600a80549050610a509190611d1a565b9050610a5c3382610d59565b6001600b83604051610a6e91906119c4565b908152602001604051809103902060006101000a81548160ff0219169083151502179055505050565b6000610aa282610d7a565b610ae1576040517f08c379a0000000000000000000000000000000000000000000000000000000008152600401610ad890611d9a565b60405180910390fd5b6000610aec8361079a565b90508073ffffffffffffffffffffffffffffffffffffffff168473ffffffffffffffffffffffffffffffffffffffff161491505092915050565b600073ffffffffffffffffffffffffffffffffffffffff168273ffffffffffffffffffffffffffffffffffffffff1603610b95576040517f08c379a0000000000000000000000000000000000000000000000000000000008152600401610b8c90611e2c565b60405180910390fd5b8273ffffffffffffffffffffffffffffffffffffffff16610bb58261079a565b73ffffffffffffffffffffffffffffffffffffffff1614610c0b576040517f08c379a0000000000000000000000000000000000000000000000000000000008152600401610c0290611ebe565b60405180910390fd5b610c52600460008573ffffffffffffffffffffffffffffffffffffffff1673ffffffffffffffffffffffffffffffffffffffff168152602001908152602001600020610dec565b610c99600460008473ffffffffffffffffffffffffffffffffffffffff1673ffffffffffffffffffffffffffffffffffffffff168152602001908152602001600020610e0f565b816003600083815260200190815260200160002060006101000a81548173ffffffffffffffffffffffffffffffffffffffff021916908373ffffffffffffffffffffffffffffffffffffffff160217905550808273ffffffffffffffffffffffffffffffffffffffff168473ffffffffffffffffffffffffffffffffffffffff167fddf252ad1be2c89b69c2b068fc378daa952ba7f163c4a11628f55a4df523b3ef60405160405180910390a4505050565b600081600001549050919050565b610d638282610e2e565b610d6c81610fdf565b610d768282611028565b5050565b6000806003600084815260200190815260200160002060009054906101000a900473ffffffffffffffffffffffffffffffffffffffff169050600073ffffffffffffffffffffffffffffffffffffffff168173ffffffffffffffffffffffffffffffffffffffff161415915050919050565b610e04600182600001546110ec90919063ffffffff16565b816000018190555050565b6001816000016000828254610e249190611ede565b9250508190555050565b600073ffffffffffffffffffffffffffffffffffffffff168273ffffffffffffffffffffffffffffffffffffffff1603610e9d576040517f08c379a0000000000000000000000000000000000000000000000000000000008152600401610e9490611f84565b60405180910390fd5b610ea681610d7a565b15610ee6576040517f08c379a0000000000000000000000000000000000000000000000000000000008152600401610edd90611ff0565b60405180910390fd5b816003600083815260200190815260200160002060006101000a81548173ffffffffffffffffffffffffffffffffffffffff021916908373ffffffffffffffffffffffffffffffffffffffff160217905550610f7f600460008473ffffffffffffffffffffffffffffffffffffffff1673ffffffffffffffffffffffffffffffffffffffff168152602001908152602001600020610e0f565b808273ffffffffffffffffffffffffffffffffffffffff16600073ffffffffffffffffffffffffffffffffffffffff167fddf252ad1be2c89b69c2b068fc378daa952ba7f163c4a11628f55a4df523b3ef60405160405180910390a45050565b6006805490506007600083815260200190815260200160002081905550600681908060018154018082558091505060019003906000526020600020016000909190919091505550565b600860008373ffffffffffffffffffffffffffffffffffffffff1673ffffffffffffffffffffffffffffffffffffffff168152602001908152602001600020805490506009600083815260200190815260200160002081905550600860008373ffffffffffffffffffffffffffffffffffffffff1673ffffffffffffffffffffffffffffffffffffffff1681526020019081526020016000208190806001815401808255809150506001900390600052602060002001600090919091909150555050565b600082821115611131576040517f08c379a00000000000000000000000000000000000000000000000000000000081526004016111289061205c565b60405180910390fd5b6000828461113f9190611d1a565b90508091505092915050565b6000604051905090565b600080fd5b600080fd5b60007fffffffff0000000000000000000000000000000000000000000000000000000082169050919050565b6111948161115f565b811461119f57600080fd5b50565b6000813590506111b18161118b565b92915050565b6000602082840312156111cd576111cc611155565b5b60006111db848285016111a2565b91505092915050565b60008115159050919050565b6111f9816111e4565b82525050565b600060208201905061121460008301846111f0565b92915050565b600081519050919050565b600082825260208201905092915050565b60005b83811015611254578082015181840152602081019050611239565b60008484015250505050565b6000601f19601f8301169050919050565b600061127c8261121a565b6112868185611225565b9350611296818560208601611236565b61129f81611260565b840191505092915050565b600060208201905081810360008301526112c48184611271565b905092915050565b6000819050919050565b6112df816112cc565b81146112ea57600080fd5b50565b6000813590506112fc816112d6565b92915050565b60006020828403121561131857611317611155565b5b6000611326848285016112ed565b91505092915050565b600073ffffffffffffffffffffffffffffffffffffffff82169050919050565b600061135a8261132f565b9050919050565b61136a8161134f565b811461137557600080fd5b50565b60008135905061138781611361565b92915050565b600080604083850312156113a4576113a3611155565b5b60006113b285828601611378565b92505060206113c3858286016112ed565b9150509250929050565b6113d6816112cc565b82525050565b60006020820190506113f160008301846113cd565b92915050565b6000806000606084860312156114105761140f611155565b5b600061141e86828701611378565b935050602061142f86828701611378565b9250506040611440868287016112ed565b9150509250925092565b6114538161134f565b82525050565b600060208201905061146e600083018461144a565b92915050565b60006020828403121561148a57611489611155565b5b600061149884828501611378565b91505092915050565b600080fd5b600080fd5b7f4e487b7100000000000000000000000000000000000000000000000000000000600052604160045260246000fd5b6114e382611260565b810181811067ffffffffffffffff82111715611502576115016114ab565b5b80604052505050565b600061151561114b565b905061152182826114da565b919050565b600067ffffffffffffffff821115611541576115406114ab565b5b61154a82611260565b9050602081019050919050565b82818337600083830152505050565b600061157961157484611526565b61150b565b905082815260208101848484011115611595576115946114a6565b5b6115a0848285611557565b509392505050565b600082601f8301126115bd576115bc6114a1565b5b81356115cd848260208601611566565b91505092915050565b6000602082840312156115ec576115eb611155565b5b600082013567ffffffffffffffff81111561160a5761160961115a565b5b611616848285016115a8565b91505092915050565b7f4e487b7100000000000000000000000000000000000000000000000000000000600052602260045260246000fd5b6000600282049050600182168061166657607f821691505b6020821081036116795761167861161f565b5b50919050565b7f4552433732313a2063616e7420617070726f762063757272656e74206f776e6560008201527f7200000000000000000000000000000000000000000000000000000000000000602082015250565b60006116db602183611225565b91506116e68261167f565b604082019050919050565b6000602082019050818103600083015261170a816116ce565b9050919050565b7f4552433732313a2063757272656e742063616c6c6572206973206e6f7420746860008201527f65206f776e6572206f662074686520746f6b656e000000000000000000000000602082015250565b600061176d603483611225565b915061177882611711565b604082019050919050565b6000602082019050818103600083015261179c81611760565b9050919050565b7f4552433732313a206f776e657220696e646578206973206f7574206f6620626f60008201527f756e647300000000000000000000000000000000000000000000000000000000602082015250565b60006117ff602483611225565b915061180a826117a3565b604082019050919050565b6000602082019050818103600083015261182e816117f2565b9050919050565b7f4e487b7100000000000000000000000000000000000000000000000000000000600052603260045260246000fd5b7f4552433732313a20676c6f62616c20696e646578206973206f7574206f66206260008201527f6f756e6473000000000000000000000000000000000000000000000000000000602082015250565b60006118c0602583611225565b91506118cb82611864565b604082019050919050565b600060208201905081810360008301526118ef816118b3565b9050919050565b7f4552433732313a206f776e657220717561727920666f72206e6f6e2d6578697360008201527f74656e7420746f6b656e00000000000000000000000000000000000000000000602082015250565b6000611952602a83611225565b915061195d826118f6565b604082019050919050565b6000602082019050818103600083015261198181611945565b9050919050565b600081905092915050565b600061199e8261121a565b6119a88185611988565b93506119b8818560208601611236565b80840191505092915050565b60006119d08284611993565b915081905092915050565b7f4552433732313a2063616e74206d696e7420616c7265616479206d696e74656460008201527f206e667473000000000000000000000000000000000000000000000000000000602082015250565b6000611a37602583611225565b9150611a42826119db565b604082019050919050565b60006020820190508181036000830152611a6681611a2a565b9050919050565b60008190508160005260206000209050919050565b60006020601f8301049050919050565b600082821b905092915050565b600060088302611acf7fffffffffffffffffffffffffffffffffffffffffffffffffffffffffffffffff82611a92565b611ad98683611a92565b95508019841693508086168417925050509392505050565b6000819050919050565b6000611b16611b11611b0c846112cc565b611af1565b6112cc565b9050919050565b6000819050919050565b611b3083611afb565b611b44611b3c82611b1d565b848454611a9f565b825550505050565b600090565b611b59611b4c565b611b64818484611b27565b505050565b5b81811015611b8857611b7d600082611b51565b600181019050611b6a565b5050565b601f821115611bcd57611b9e81611a6d565b611ba784611a82565b81016020851015611bb6578190505b611bca611bc285611a82565b830182611b69565b50505b505050565b600082821c905092915050565b6000611bf060001984600802611bd2565b1980831691505092915050565b6000611c098383611bdf565b9150826002028217905092915050565b611c228261121a565b67ffffffffffffffff811115611c3b57611c3a6114ab565b5b611c45825461164e565b611c50828285611b8c565b600060209050601f831160018114611c835760008415611c71578287015190505b611c7b8582611bfd565b865550611ce3565b601f198416611c9186611a6d565b60005b82811015611cb957848901518255600182019150602085019450602081019050611c94565b86831015611cd65784890151611cd2601f891682611bdf565b8355505b6001600288020188555050505b505050505050565b7f4e487b7100000000000000000000000000000000000000000000000000000000600052601160045260246000fd5b6000611d25826112cc565b9150611d30836112cc565b9250828203905081811115611d4857611d47611ceb565b5b92915050565b7f4552433732313a20746f6b656e20646f6573206e6f7420657869737400000000600082015250565b6000611d84601c83611225565b9150611d8f82611d4e565b602082019050919050565b60006020820190508181036000830152611db381611d77565b9050919050565b7f4552433732313a2063616e74207472616e7366657220746f206164647265737360008201527f2077697468207a65726f2076616c756500000000000000000000000000000000602082015250565b6000611e16603083611225565b9150611e2182611dba565b604082019050919050565b60006020820190508181036000830152611e4581611e09565b9050919050565b7f4552433732313a2063616e74207472616e73666572206120746f6b656e20746860008201527f617420746865206164647265737320646f65736e74206f776e00000000000000602082015250565b6000611ea8603983611225565b9150611eb382611e4c565b604082019050919050565b60006020820190508181036000830152611ed781611e9b565b9050919050565b6000611ee9826112cc565b9150611ef4836112cc565b9250828201905080821115611f0c57611f0b611ceb565b5b92915050565b7f4552433732313a206d696e74696e6720746f20746865207a65726f206164647260008201527f6573730000000000000000000000000000000000000000000000000000000000602082015250565b6000611f6e602383611225565b9150611f7982611f12565b604082019050919050565b60006020820190508181036000830152611f9d81611f61565b9050919050565b7f4552433732313a20746f6b656e20616c7265616479206d696e74656400000000600082015250565b6000611fda601c83611225565b9150611fe582611fa4565b602082019050919050565b6000602082019050818103600083015261200981611fcd565b9050919050565b7f536166654d6174683a205375627472616374696f6e204f766572666c6f770000600082015250565b6000612046601e83611225565b915061205182612010565b602082019050919050565b6000602082019050818103600083015261207581612039565b905091905056fea2646970667358221220628e96c01b9775ff20b763003f54e933bfe2c95f639bc4ae760673fb3d7183a564736f6c63430008110033",
  "immutableReferences": {},
  "source": "// SPDX-License-Identifier: MIT\r\npragma solidity ^0.8.0;\r\n\r\nimport \"./ERC721Connector.sol\";\r\n\r\ncontract ethBLOCKIE is ERC721Connector {\r\n\r\n    // array to store our NFTs\r\n    string [] public ethBLOCKIES;\r\n\r\n    mapping(string => bool) private _ethBLOCKIESexists;\r\n\r\n    constructor () \r\n        ERC721Connector(\"ethBLOCKIE\", \"ethBLCK\") \r\n    {\r\n\r\n    }\r\n\r\n    function mint(\r\n        string memory _ethBLOCKIE\r\n    )\r\n        public\r\n        payable\r\n    {\r\n        require(!_ethBLOCKIESexists[_ethBLOCKIE], \"ERC721: cant mint already minted nfts\");\r\n        // this is depricated - uint _id = ethBLOCKIES.push(_ethBLOCKIE);\r\n        ethBLOCKIES.push(_ethBLOCKIE);\r\n        uint _id = ethBLOCKIES.length - 1;\r\n\r\n        // .push no longer returns the length but ref to the added element   \r\n        _mint(msg.sender, _id);\r\n\r\n        _ethBLOCKIESexists[_ethBLOCKIE] = true;\r\n    }\r\n\r\n    receive() external payable {\r\n\r\n    }\r\n}",
  "sourcePath": "D:\\Posao\\Kod\\Solidity\\nft-marketplace-starter-kit-main\\src\\contracts\\ethBLOCKIES.sol",
  "compiler": {
    "name": "solc",
    "version": "0.8.17+commit.8df45f5f.Emscripten.clang"
  },
  "schemaVersion": "3.4.10",
  "updatedAt": "2022-09-29T14:32:11.171Z",
  "networkType": "ethereum",
  "devdoc": {
    "kind": "dev",
    "methods": {},
    "version": 1
  },
  "userdoc": {
    "kind": "user",
    "methods": {},
    "version": 1
  }
}